:020000040800F2
:100000005866022081020008CDBB00086F930008EB
:10001000C9BB00083B17000817E3000800000000F8
:10002000000000000000000000000000C101000806
:10003000FB1C0008000000001D020008E9D60008B3
:100040009B0200089B0200089B0200089B0200081C
:100050009B0200089B0200089B0200089B0200080C
:100060009B0200089B0200089B0200089B020008FC
:100070009B0200089B0200089B0200089B020008EC
:100080009B0200089B0200089B0200089B020008DC
:100090003F1700089B0200089B0200089B02000813
:1000A0009B0200089B0200089B0200089B020008BC
:1000B00081D90008CDD900081DDA00089B0200088C
:1000C0009B0200089B0200089B0200089B0200089C
:1000D0009B0200081DDE0008DDDE00089DDF000831
:1000E000612300089B0200089B0200089B02000895
:1000F0009B0200089B0200089B0200089B0200086C
:100100009B0200089B0200086DDA00089B020008B1
:100110009DDC00085DDD0008BDDA00080DDB00088D
:100120009B0200089B0200089B0200089B0200083B
:100130009B0200089B0200089B0200089B0200082B
:100140009B0200089B0200089B0200089B0200081B
:100150009B0200089B0200089B0200089B0200080B
:100160009B0200089B0200089B0200089B020008FB
:100170009B0200089B0200089B0200080000000090
:100180009B0200089B0200089B0200089B020008DB
:100190009B0200089B0200089B0200089B020008CB
:1001A0009B0200089B0200089B020008DFF80CD0AD
:1001B00000F0BEFC00480047ED83020858660220AC
:1001C0002C4B19680868B0E8F04F80F30988BFF33A
:1001D0006F8F4FF0000080F311887047000000001F
:1001E00008480068006880F308884FF0000080F33A
:1001F000148862B661B6BFF34F8FBFF36F8F00DF15
:1002000000BF00BF08ED00E0DFF80C00016841F41A
:1002100070010160704700BF88ED00E0EFF30980D6
:10022000BFF36F8F134B1A681EF0100F08BF20ED3D
:10023000108A20E9F04F106009B44FF0100080F3ED
:100240001188BFF34F8FBFF36F8F2DF095FD4FF0E7
:10025000000080F3118809BC19680868B0E8F04F05
:100260001EF0100F08BFB0EC108A80F30988BFF3AE
:100270006F8F704700000010EFF30580704700009B
:100280000648804706480047FEE7FEE7FEE7FEE730
:10029000FEE7FEE7FEE7FEE7FEE7FEE7F9D6000829
:1002A000AD0100082DE9F04100242546002905DABA
:1002B00001240027D0EB070067EB0101002B05DAD2
:1002C0000027D2EB0702012567EB030300F0BCF91E
:1002D00086460E4617469C46AC4204D00025D0EB1D
:1002E000050E65EB010624B10020D2EB000760EBA0
:1002F000030C704631463A466346BDE8F081000083
:1003000000487047184B070810B50446FFF7F8FF80
:100310000068005D00F0010010BD10B5441A0346EE
:10032000944209D28418114403E011F8013D04F805
:10033000013D521EF9D210BD40EA0104A40703D0CA
:1003400009E010C9121F10C3042AFAD203E011F801
:10035000014B03F8014B521EF9D210BDD2B201E09D
:1003600000F8012B491EFBD270470022F6E710B5BA
:1003700013460A4604461946FFF7F0FF204610BD13
:1003800030B505462A460B4612F8010B13F8014B0F
:1003900008B1A042F8D01CB1002802D06D1CF1E7D2
:1003A000284630BD10B5044604E00B7800F8013B48
:1003B00003B1491C521EF8D2204610BDCAB2401EDD
:1003C00010F8011F8A4202D00029F9D1002070479D
:1003D000421C10F8011B0029FBD1801A704710B590
:1003E000002200E0521C835C8C5CA34201D1002BF4
:1003F000F8D1D8B2E1B2401A10BD30B504460020A1
:10040000034600E05B1C934203D2E05CCD5C401BE2
:10041000F8D030BD034611F8012B00F8012B002A5B
:10042000F9D11846704730B505460020034600E074
:100430005B1C934205D2EC5CC85C201A01D1002CF5
:10044000F6D130BD10B54843044628F095F8002891
:1004500005D00021002C02D0641E0155FAE710BD22
:1004600070B506461CF01AFA046805460A220021F7
:10047000304600F087F92C6070BD2DE9FE4F81EA0F
:10048000030404F0004421F0004100944FF0000BFD
:1004900023F0004350EA01045ED052EA03045BD02B
:1004A000C3F30A54C1F30A552C44A4F2F334019463
:1004B000A0FB0254C1F3130141F48011C3F31303F1
:1004C00043F4801301FB024400FB034E840A970AA5
:1004D00044EA815447EA8357A4FB076802958D0AD2
:1004E00005FB07854FEA932C04FB0C542705029D5E
:1004F0004FEA065847EA1637B5EB08056EEB070CCE
:10050000870E920E47EA811742EA8312A7FB020187
:10051000B6EB0B0164EB00042B0D43EA0C335E18C1
:1005200044EB1C50DA465146E7FB0201C5F31304C5
:100530004FEA0B3343EA14534FEA0432019C43EA77
:100540000603A4F10C040294009CCDE900B400F071
:100550005EF903B0BDE8F08F00200146F9E70EB563
:1005600040F2334102910021CDE900110A460B46C9
:1005700000F04DF903B000BDC1F30A5210B5C1F34C
:10058000130140F2FF3341F480119A4201DA002056
:1005900010BD40F233439A42A2F2334203DC52428E
:1005A00000F092F810BD904010BD70B5C1F30A5232
:1005B00001F000450024C1F3130140F2FF3341F480
:1005C00080119A4202DA0020014670BD40F23343A6
:1005D0009A42A2F2334203DC524200F075F801E085
:1005E00000F063F82C43F0D00023D0EB030063EB62
:1005F000010170BD30B5002904DB4FF000444042DA
:1006000064EB0101002B04DB4FF00044524264EB29
:1006100003038B4208BF824230BD000030B50B4659
:10062000014600202022012409E021FA02F59D4222
:1006300005D303FA02F5491B04FA02F52844151EF6
:10064000A2F10102F1DC30BD2DE9F05F054600208A
:1006500092469B4688460646814640241BE0284633
:1006600041464746224600F02FF853465A46C01AE4
:10067000914110D311461846224600F016F82D1A63
:1006800067EB01084F4622460120002100F00DF8DB
:1006900017EB00094E41201EA4F10104DFDC48469F
:1006A00031462A464346BDE8F09F202A04DB203A23
:1006B00000FA02F1002070479140C2F1200320FAB5
:1006C00003F3194390407047202A04DB203A21FAB3
:1006D00002F00021704721FA02F3D040C2F120025B
:1006E00091400843194670470FB4002300B589B004
:1006F0000CA900910B996FF00042CB601E4B069342
:100700001E4B07930423CDE901321D4A089202468D
:100710006B46002000F0B0FA09B05DF814FB70B52C
:1007200086B006464FF0FF300091CDE90101002070
:1007300015460C4604903246694604A8FFF7D4FFDC
:1007400003460498211825B108B10A4600E0224664
:100750002A6000280DD0002B02DD0098884208D0C6
:10076000081B0094CDE901043246694604A8FFF74E
:10077000BBFF06B070BD0000B10E0008CF0E000830
:10078000090300082DE9F04791460F4680460446CC
:10079000002614F8015B2DB1FFF7B2FD0068405D43
:1007A000C007F6D12B2D02D02D2D18D0641E4A463D
:1007B0003946204600F09CFB27B13968A14201D19F
:1007C000C7F8008071054FF002040BD540420028A5
:1007D00003DD1CF063F80460A007BDE8F08746F471
:1007E0008066E4E70028F8DA1CF058F804606FF03F
:1007F0000040F2E710B5002B08DA401C41F100017F
:1008000092185B411A4301D120F0010010BD2DE97F
:10081000F04D92469B4611B1B1FA81F202E0B0FA76
:1008200080F220329046FFF740FF04460F4640EA30
:100830000A0041EA0B0153465A46084313D01146B9
:1008400053EA010019D0C8F140025046FFF73CFFBF
:1008500005460E46504659464246FFF726FF0843D6
:1008600005D0012004E020463946BDE8F08D002087
:10087000054346EAE0762C4337430A986305E40AC9
:10088000A0EB08000022FD0A44EA47540A3002D5D2
:1008900000200146E9E7010510196941DDE9084535
:1008A00000196941BDE8F04DA4E72DE9FE4F8046EF
:1008B00081EA0300C00F0C46009021F0004123F0B4
:1008C0000045B8EB0200A94105D2404621469046BA
:1008D0001C460B46024623F00040104347D0270D2C
:1008E000C7F30A00C3F30A510290401A019040284E
:1008F0006BDAC3F3130040F4801B0098924620B1DA
:100900000023D2EB030A63EB0B0B01985946C0F1AD
:1009100040025046FFF7C9FE06460D46504659466E
:10092000019A00F017F910EB08006141002487EAF2
:10093000115284EAE7731A4340D0009A62B3019AD5
:10094000012A4FEA075215DC001B61EB02014FF050
:10095000004202EA0752CDE90042001C41F5801135
:1009600032462B46FFF753FF03B0BDE8F08F4046F9
:100970002146F9E7001B61EB0201001C41F58013E1
:1009800000185B412018A2F5001747EB030140EA6D
:10099000D570B6196D4111E06D084FEA360645EA8B
:1009A000C0754FEA0752001B61EB0201001C41F5C4
:1009B000801149084FEA30000019514132462B4658
:1009C00003B0BDE8F04FFFF715BF009801224000CB
:1009D0000023D0EB020263EBE073009821464FEA5C
:1009E000E074B8EB000061EB0401E9E783F0004339
:1009F0005BE781F0004158E72DE9F04D81EA0304FF
:100A000004F0004B21F0004514464FF0000A23F09B
:100A1000004150EA050220D054EA01021DD0C5F37E
:100A20000A570246C5F31303C1F31300C1F30A5674
:100A300040F4801543F48013A7EB0608101BD6463C
:100A400008F2FD3873EB050002D308F1010801E05C
:100A500092185B41B8F1000F03DA00200146BDE8AF
:100A6000F08D00204FF48011064684460EE0171BDF
:100A700073EB050705D3121B63EB050306434CEA32
:100A8000010C49084FEA300092185B4150EA010717
:100A9000EDD152EA030012D082EA040083EA050194
:100AA000084305D0101BAB4106D20122002306E00B
:100AB00000224FF0004302E06FF0010253101AEBE6
:100AC00006004CEB085110EB0A0041EB0B01BDE8AE
:100AD000F04DFFF78FBEC1F30A52C1F3130140F28C
:100AE000FF3341F480119A4202DA00200146704738
:100AF00040F233439A42A2F2334202DC5242FFF701
:100B0000E3BDFFF7D2BD000030B5002904DB4FF094
:100B10000044404264EB0101002B04DB4FF0004431
:100B2000524264EB0303994208BF904230BD00007B
:100B3000064C074D06E0E06840F0010394E807002A
:100B400098471034AC42F6D3FFF734FBA44C0708A7
:100B5000E44C0708202A06DBCB17203A41FA02F0C2
:100B600043EAE07306E041FA02F3D040C2F120020A
:100B700091400843194670472DE9FF4F087881B02E
:100B80009946FF2805D0491C2D2804D000240023B5
:100B900008E000230BE00124F9E703EB830300EBFB
:100BA0004303491C0878FF28F7D104B15B420020B9
:100BB0000090147801462D2C01D02B2C04D1521C0E
:100BC0002D2C12D00024009400251678FF2E0ED074
:100BD0000A24A0FB04C801FB0481002700FB0711C5
:100BE000521C16EB0C006941EFE70124EBE7994436
:100BF00050EA01020ED00024AA4D2646DFF8A88252
:100C000000F0D3F982468B46B9F1000009DAC9F148
:100C100000071BE001980021C0E9001105B0BDE804
:100C2000F08F074612E0F80707D022462B463046E1
:100C30004146FFF722FC0646884622462B461046D0
:100C40001946FFF71AFC04460D467F10002FEAD123
:100C5000B9F1000F324643465046594602DAFFF7D3
:100C6000CBFE01E0FFF709FC009A0AB181F00041D8
:100C7000019AC2E90001D1E72DE9FF4F1F468DB06F
:100C8000D7E901464FF0FF382E2045464FF00009C6
:100C90000B90B9696D1C0E988847396A824688475F
:100CA0000028F6D1BAF1FF3F0AD024F4D064002E18
:100CB00011DDBAF12B0F08D0BAF12D0F0BD102E0E4
:100CC000404611B0ABE744F48064B9696D1C0E98DE
:100CD00088478246761E6946600501D52D2000E0D2
:100CE0002B208DF8000001F1010B0DF1200809E027
:100CF000B9696D1C0E98884782460F9844F40074B9
:100D0000761E0560002E02DDBAF1300FF0D00B998F
:100D10008A453ED144F0800406E00F99681CA9F191
:100D2000010944F400740860B9696D1C761E0E98C0
:100D3000884782463028F0D02BE00B998A4505D1B0
:100D4000200603D444F08004761E18E050461FF0BD
:100D5000DFFE08B30DF11301761E44F400748B45D9
:100D600008D2AAF130000BF8010B200607D5A9F133
:100D7000010003E0200602D409F101008146A0052C
:100D800002D50F99681C0860B9696D1C0E988847D8
:100D90008246002ED1DC53E0002E51DDBAF1650F02
:100DA00002D0BAF1450F4BD1A00549D5B9696D1CE8
:100DB00024F44074761E0E9888478246002E0CDD7F
:100DC0002B2804D0BAF12D0F07D144F48074B969EF
:100DD0006D1C0E9888478246761EE00501D52D21B0
:100DE00000E02B2108F8011BCDF82C8021E00DF14B
:100DF0002901761E44F4007488450CD2AAF1300013
:100E000010F0FF0088F8000002D10B99884509D93D
:100E100008F1010806E0E00501D5244801E042F2AE
:100E20000F708146B9696D1C0E98884782460F98ED
:100E30000560002E04DD50461FF06AFE0028D6D162
:100E4000F9690E988847FF208BF8000088F80000A9
:100E50000020069007904B466A4608A906A8FFF7AF
:100E60008BFEA00502D46FF001002AE714F0240FD6
:100E70000AD0E00714D1DDE906123868031D3B6093
:100E80000068C0E900120BE0DDE9060100F099F806
:100E90000146E00704D13868021D3A60006801602D
:100EA00028460EE7000024400000F03FF1D8FFFF85
:100EB000426842B1016811F8013B23B1521EC0E9FA
:100EC0000012184670470121C160881E70474268B1
:100ED0005AB1C368016843B983688B4205D0491E83
:100EE000521CC0E90012002070474FF0FF307047DD
:100EF0002DE9F05F82460078002715468B460AF1FF
:100F00000104B946302801D09DB113E014F8010B5B
:100F10000127782803D0582801D045B10AE00DB147
:100F2000102D07D10027102514F8010B02E0082529
:100F300000E00A250026B0460EE005FB080005FB90
:100F400006F1012701EB10461FFA80F8B6F5803F45
:100F500000D3B94614F8010B294600F018F8002810
:100F6000EBDABBF1000F05D00FB1641E00E0544670
:100F7000CBF80040B9F1000F06D01BF08FFC022126
:100F80000160C81EBDE8F09F48EA0640FAE73A282B
:100F900000D2303820F02002412A01D3A2F13700DC
:100FA000884201D34FF0FF3070470EB540F2334214
:100FB00002920022CDE900221346FFF728FC03B07D
:100FC00000BD01F0004330B421F0004150EA0102BD
:100FD00006D00A0DA2F56072C1F31301002A02DCEB
:100FE00030BC00207047440F44EAC104C100E0183F
:100FF00030BC00EBC250AFF300800029A8BF70479F
:10100000401C490008BF20F00100704710B4B0FA3E
:1010100080FC00FA0CF050EA010404BF10BC7047D9
:1010200049B1CCF1200421FA04F411FA0CF118BFF3
:10103000012121430843A3EB0C01CB1D4FEA0061C2
:101040004FEA102042BF002010BC704700EBC35095
:1010500010440029A4BF10BC7047401C490008BFC1
:1010600020F0010010BC704770B58C1810F8015BBF
:1010700015F0070301D110F8013B2A1106D110F831
:10108000012B03E010F8016B01F8016B5B1EF9D135
:101090002B0705D40023521E0DD401F8013BFAE7BB
:1010A00010F8013BCB1A921C03E013F8015B01F826
:1010B000015B521EF9D5A142D8D3002070BD002893
:1010C00000DC40427047000038B5456804460146E0
:1010D00028460DF041F900282BD02068304A11280D
:1010E0000DD006DC0B2825D00E2833D00F2852D186
:1010F00012E0282849D0B0F5107F4CD108E0926862
:10110000002A16D02146284601B0BDE830401047DD
:10111000214628465268F7E7284603F091F90090E7
:10112000406E0468684603F0E9F9002C01D02846B7
:10113000A04738BD284603F083F90090683003F0DB
:10114000D5F8009803216C3003F0DEF8684603F010
:10115000D5F920E0E168486809680D2902D0202906
:1011600013D105E0002810DD284617F0ECFC06E05E
:10117000002804DD2846BDE8384017F0E4BC2846C6
:10118000BDE83840022117F0F4BCE06818B900212E
:10119000284600F04BFA2046BDE838400DF06EBD01
:1011A000440B0020F0B5044685B08069B4F90850BE
:1011B000668A0027CDE90265CDE900170490B4F9ED
:1011C0000C00B4F91060C118B4F90A00B4F90E505B
:1011D000104433462A4600F007F80546616800F0DF
:1011E00047FA05B02846F0BD2DE9F04F85B01F46FF
:1011F000DDE911B4DDE90E5690468946824604F0D9
:101200001BFC16484C34CDE90204CDE900563B46A0
:101210004246494650460DF079FC040018D003F0D0
:101220000FF91022594604900DF068FA0498302204
:101230000B493430FFF771F8094D04990C3D2868CB
:10124000486604A803F05AF9286841682046884790
:1012500006F014F905B02046BDE8F08FC91000086B
:10126000500B0020F0B5044680688B4989B051F8D6
:101270002050606800287DD0052804D006287AD048
:10128000122879D1AEE0E86900284FD095E80E0029
:101290008DE80F0004F110010FC907F043F8002694
:1012A00055F8260005F075FAA169E8690A1A21695E
:1012B00001446069304404F039F8A169E8690A1A08
:1012C00021690144E069801B04F030F8E169E869B4
:1012D0000A1A616901442069304404F0DDF8E169CB
:1012E000E8690A1A61690144A069801B04F0D4F816
:1012F000761C022ED4DBA86805F04BFAE069E96998
:101300006669431A206942183144801C521E04F059
:1013100065F9E169E869A2690B1A61690144101A6B
:10132000401C921E04F05AF9EE6913E05FF00006CB
:1013300055F8260005F02DFAE069831BA069821B91
:10134000606981192069304404F066F8761C022E29
:10135000EEDB0226D5E90301CDE900016169E06910
:1013600008444310A069891C821B2069304403F0A3
:10137000A1FF02E089E012E08AE0D5E90501CDE9AC
:101380000001E36960690121184401EB6001A06973
:101390009B1E821B2069304403F08CFF78E020689C
:1013A00003F04EF8049020680FF06EF940B1A06889
:1013B00008B1002008E00498006F28B1012003E084
:1013C0000498406F00B10220049901EB8000C56EC3
:1013D00004A803F093F800231A462846216803F076
:1013E00053FC55E0206803F02BF80490866EEEB3B2
:1013F000B0F95C70A168D1B3032942D05FF000015D
:1014000000EB8101406D0C6C05F0F4F9204605F00D
:10141000C0F905A804F00EFABDF81410A88B014419
:10142000ADF81410BDF81810081AADF81800BDF882
:101430001600801CADF81600BDF81A00801EADF82D
:101440001A000498B0F96020B0F95E1005A804F005
:1014500097FF04A803F052F8022005F055FA304631
:1014600002F0EEFF3A4605A9079001E00BE006E026
:1014700003F012FD0DF11C0003F040F808E001211B
:10148000BEE70221BCE704A8F6E720680EF040FDA5
:1014900009B00020F0BD0000243307087CB50D46DC
:1014A00006004FF0000417D004F0C6FA304602F0F0
:1014B000C7FF0090032D0AD200EB8500C06E30B14B
:1014C00002F0BEFF0190446801A803F017F86846D7
:1014D00003F014F805F0D2FF20467CBD38B50500B6
:1014E0004FF000040BD004F0A7FA284602F0A8FF42
:1014F0000090446D684603F001F805F0BFFF2046F8
:1015000038BD00002DE9FC4115460E46040023D0ED
:1015100004F092FA204602F093FF0190806E0027BB
:10152000A0B102F08DFF0090FEF752FF0446681E46
:10153000844200DD0446094B224630461B68009970
:101540009847684602F0DAFF375500E0377001A887
:1015500002F0D4FF05F092FFBDE8FC8104110020E9
:10156000F8B50D4606004FF000040FD004F064FA01
:10157000304602F065FF0090032D02D200EB85009B
:10158000046C684602F0BAFF05F078FF2046F8BD0B
:1015900038B505004FF000040DD004F04DFA284690
:1015A00002F04EFF0090408EC0F30024684602F027
:1015B000A5FF05F063FF204638BD08B50023009362
:1015C00000F001F808BD70B516460C4605461946F0
:1015D0003046049A03F038FB024621462846BDE80F
:1015E000704000F08BB80000044A034911600449C0
:1015F0004A6A486210467047800B0020440B002066
:10160000500B002038B50D4604000ED004F014FA3B
:10161000204602F015FF00904565684602F06EFF17
:1016200020460EF0EDF805F029FF38BD4FF480722A
:101630000029114601D00CF024BF0CF06EBE000052
:1016400038B50C46054604F0F7F9284602F0F8FED6
:101650000090064984654166684602F04FFF2846BF
:101660000EF0CEF805F00AFF38BD0000800B002018
:101670002DE9FF410E4605004FF0010421D004F092
:10168000DBF9284602F0DCFE0190876E01A8009786
:1016900002F034FF3146684607F022FA78B100982C
:1016A0000024B84208D0284602F0CAFE01900099F2
:1016B000816601A802F022FF28460EF0A1F805F08D
:1016C000DDFE04B02046BDE8F081F8B515460C46B5
:1016D000060012D004F0B0F9304602F0B1FE0090DE
:1016E000032C02D200EB84000564684602F006FF7A
:1016F00030460EF085F805F0C1FEF8BDF8B5154688
:101700000C46060018D004F097F9304602F098FE17
:101710000090032C0BD200EB84006C3002F0E6FD4D
:10172000009800EB8400C56630460EF069F8684604
:1017300002F0E4FE05F0A2FEF8BD00BFFEE7704730
:101740002DE9FF470446006810B10EF09DFF68B117
:101750000022314850F8221060680A2841D007DC86
:10176000F0B306280DD0072854D106E00122F0E797
:1017700012280AD019284DD137E0204610F0E6FC97
:1017800048E0204612F0BAFD44E0206802F058FE1E
:101790000290B0F9548090F85650476C466B02A8FE
:1017A00002F0ACFE206800F050F8814668460DF06B
:1017B000A1FBBDF8001009EB05000844ADF80000DE
:1017C000246A304605F016F8022005F09DF83846E8
:1017D00004F0DFFF42466946204603F05DFB19E056
:1017E00007E0204613F062FC14E0886904B0BDE80D
:1017F000F08720680EF08CFB206802F021FE039039
:10180000B0F90610B0F90220891A491CC16703A873
:1018100002F074FE0020E9E73433070838B505000C
:101820004FF000040FD004F007F9284602F008FE3C
:10183000009018B1046C28460DF0E2FF684602F0F3
:101840005DFE05F01BFE204638BD38B5044604F0A9
:10185000F3F8204602F0F4FD0090C46F684602F0F1
:101860004DFE05F00BFE204638BD0000044A03493A
:1018700011600449CA69C861104670470C0C002009
:101880000C1200201012002000B589B024216846F7
:10189000FEF76BFD192001900348006880684168DD
:1018A0006846884709B000BD0C12002010B505201D
:1018B0001FF040FD10BD000010B500200F4908606A
:1018C0000F48006820F440200D4908600846006871
:1018D00040F480200860FFF7E9FF00200949C1F8C3
:1018E000A402FFF7E3FF012004490860FFF7DEFFD1
:1018F00000200549C1F8840210BD000084824042E6
:101900000014024000804242008040421CB5012188
:1019100022200AF03BFD0220009001208DF80400F7
:1019200003208DF8050000208DF8060001208DF8B9
:1019300007006946084802F00DF84FF40070009067
:101940006946064802F006F8012005490860054985
:10195000C1F8A4021CBD00000004024000140240B3
:10196000848240420080424210B500200F49086046
:101970000F48006820F440200D49086008460068C0
:1019800040F480200860FFF791FF01200949C1F869
:10199000A402FFF78BFF012004490860FFF786FFD0
:1019A00000200549C1F8840210BD00008482404235
:1019B00000140240008042420080404270B505465B
:1019C00000241548006820F44020134908600846A8
:1019D000006808600A201FF0ADFC002611E000201E
:1019E0000E490860FFF762FF01200D49C1F884022B
:1019F0006006040E0B48006808B1601CC4B2701C7D
:101A0000C6B2082EEBDB15B9FFF7AEFF01E0FFF71A
:101A100053FF204670BD0000001402408482404203
:101A2000008040422482424270B504461348006858
:101A300020F44020114908600846006840F48020E6
:101A4000086000200E490860FFF730FF002511E014
:101A5000E0090C4908606006040E01200A49C1F83B
:101A60008402FFF723FF002005490860FFF71EFFEF
:101A7000681CC5B2082DEBDB70BD000000140240ED
:101A800084824042A48242420080404210B50F4806
:101A9000006820F440200D4908600846006840F4C2
:101AA0008020086001200A4908600A49C1F88402C0
:101AB0000A201FF03FFC002005490860FFF7F6FEF2
:101AC00000200449C1F8840210BD00000014024047
:101AD000A48242420080404210B50D48006820F4C4
:101AE00040200B4908600846006840F480200860E8
:101AF0000120084908600A201FF01CFC002006494C
:101B0000C1F8A402FFF7D2FE01200449086010BD0D
:101B1000001402408482404200804242A482424239
:101B200010B500241248006820F4402010490860D5
:101B300008460068086001200E4908600E49C1F897
:101B40008402FFF7B3FE09E0601CC4B2FA2C03DD87
:101B5000FFF7C2FF012010BDFFF7A8FE054880383F
:101B600000680028F0D10549086000BFF3E70000D5
:101B700000140240A48242420080404284824042DB
:101B80002DE9F0410746884615460421052000F05E
:101B90002DF8002101200FF0A1F880210A200BF080
:101BA000ABFC002405E0395D09200FF097F8601CBC
:101BB000C4B24445F7DB032101200FF08FF8FF2466
:101BC00000BF05200AF0B6FC0646601EC4B21CB178
:101BD00006F004000028F4D022200AF0ABFC2870A4
:101BE00021200AF0A7FC6870BDE8F08170B50546B9
:101BF0000C46002628460AF09DFC064626EA04010B
:101C000028460FF06BF870BDF8B50546006802F085
:101C100017FC0090448ED0F88860684602F06EFC95
:101C200006B1012604F0010428680EF02DFD0EB166
:101C3000002006E00CB1012003E008B1022000E022
:101C400003201B4951F82010686858B302280CD0B3
:101C5000052802D0122828D103E0284610F0ACFA5B
:101C600023E0284613F057FE1FE06A69E8694FF049
:101C7000FF33801AA0F1080203EB6204421CAB6937
:101C8000001B4510A3EB6206C86904F082FD06E064
:101C90003219311B284603F049FB641E6D1C002CD1
:101CA000F6DA02E028680EF033F90020F8BD0000F3
:101CB0003C330708044A0349116004490A6B08636E
:101CC00010467047580C00204C1200205012002083
:101CD00038B50D46002402F0B3FB0090C06B2946D6
:101CE00002F0CFFC0546684602F008FC1DB128460C
:101CF00002F0A6FB0446204638BD70472DE9FC479C
:101D00000E465FEA00097FD003F096FE484602F0D7
:101D100097FB009090F85470D0F85880456BC46CD5
:101D2000684602F0EBFBB8F1000F04D0314648469C
:101D30004246904761E0122E18D006DC082E43D0B0
:101D4000102E3CD0112E06D112E0132E21D01D2EC4
:101D500043D01E2E3DD0202E4FDB17B148460FF04A
:101D60009AFFB1B2484616F0E7FA60B3611C27E06B
:101D70004DB3284602F064FB05462146019005F06C
:101D80006BFA4419204605F007FA01462346012262
:101D900010E0C5B1284602F053FB054621460190EC
:101DA00005F05AFA4419204605F0F6F90146234693
:101DB0004FF0FF3248460FF0F1FA01A81BE0611E18
:101DC000484600F0A2FA18E0BCB1611E484600F097
:101DD0009CFA48460FF05FFF0FE0484602F030FBE8
:101DE0000090012F12D0012180F85410214648465E
:101DF00000F08BFA684602F081FB48460DF000FDCA
:101E000000E001E005F03AFBBDE8FC87002180F826
:101E10005410EFE77CB54568044628460EF034FCC4
:101E20000646214628460CF097FA002844D0206840
:101E30000F283DD004DC0B283FD00E2860D147E0AE
:101E4000A0F58070133804D0A0F580702D3857D1DC
:101E50001DE028460DF09EFE284602F0F1FA0090A3
:101E600010F8561F81F004010170684602F046FB2D
:101E70000021284617F0C4FC284602F0E1FA009041
:101E8000D0F8840000210DF05DFE68461DE0E0689A
:101E900060B1017A29B10168284600F0E3F8012118
:101EA00000E0022128460DF08CFD29E00321F9E72E
:101EB0000121284617F0A4FC7CBD284602F0C0FA98
:101EC0000190343002F012FA01A802F017FB17E07B
:101ED000B6B1E0684168002912DD01681B290FD006
:101EE00006DC09290CD00A290AD00D2904D107E003
:101EF000212905D0222903D02846FFF7FFFE7CBD0B
:101F000020460CF0BBFE7CBDF0B587B004460DF159
:101F1000080CD4E90567B0F90850408A8CE8E10064
:101F20000020CDE90010B4F90C00B4F91060C1181C
:101F3000B4F90A00B4F90E50104433462A4600F0B2
:101F400009F8050002D0618A00F0B0F907B0284610
:101F5000F0BD00002DE9F04F85B01F46DDE91254B9
:101F6000DDE90E6A90468946834603F065FD0DF172
:101F7000040C4AF480501F49603400968CE813002A
:101F80003B464246494658460CF0C0FD04002AD064
:101F900002F056FA1022049011990CF0AFFB04984D
:101FA000242215496030FEF7B8F9049A012082F81E
:101FB0005500681C00D0012082F88800002D00DC4C
:101FC00008252DB2158700205087506304A86D1C8A
:101FD00002F094FA2946204615F076FF18B92046FB
:101FE0000CF086FE002405F049FA05B02046BDE855
:101FF000F08F0000151E0008140D00202DE9FC4193
:1020000015460E00044629D0002C27D003F014FDFD
:10201000204602F015FA0027019037700198406BB6
:10202000B8B102F00DFA009006F0AEFB0146009840
:1020300005F012F90446681E844200DD0446084B90
:10204000224630461B6800999847684602F056FAC7
:10205000375501A802F052FA05F010FABDE8FC81EC
:10206000041100202DE9F04186B00C46060055D041
:1020700003F0E2FC304602F0E3F90090406B98B3C5
:1020800002F0DEF903900098806E04F0B3FB804606
:1020900030460DF0D9F80746039803F03CFC05469E
:1020A000009890F8601001F00301012916D0022970
:1020B0000DD0416EC06A00680844241A641E03985B
:1020C00006F062FB0146002C0FDA002115E0781BB8
:1020D000401C00EBD070A4EB6004F0E7406E791B6D
:1020E000081A241A641CEAE713E0AC4205DC024635
:1020F0002146039806F0E8FA0146304600F005F95B
:1021000003A802F0FBF9404604F074FB30460DF0E2
:1021100077FB684602F0F2F905F0B0F906B0BDE8C9
:10212000F08138B50D4604000ED003F085FC204642
:1021300002F086F90090856620460DF061FB684646
:1021400002F0DCF905F09AF938BD7CB50C460600C2
:1021500033D003F071FC304602F072F90090B0F910
:102160003810458FA14223D012DD406B80B102F0C0
:1021700067F9019006F008FBA04206DD21460198B0
:1021800005F06AF8019A0021115401A802F0B6F98D
:10219000684602F0B3F9611B3046491C15F094FE05
:1021A000304602F04DF90090048730460DF028FBD0
:1021B000684602F0A3F905F061F97CBD2DE9FC4702
:1021C0000F465FEA00094FF000065DD003F034FCD3
:1021D000484602F035F90090B0F93850446B684633
:1021E00002F08CF9B046ECB3204602F029F90190D8
:1021F000FEF7EEF8461C3946019806F011FD04463C
:1022000001A802F07BF974B377B3384606F0BCFA44
:102210000446A84200DD2C462146384605F01CF84D
:10222000451CA91B484616F03AF940B3484602F04F
:1022300007F90090406B02F003F91B4B01902A460E
:102240001B68394698470199294401F8018C009888
:10225000C464B0F938108C420BD190F854100129A5
:1022600005D006E001E00DE010E05FB1CDE7641EAF
:10227000C46401A802F042F9684602F03FF94846FA
:102280000DF0BEFA05F0FAF8BDE8FC87484602F00A
:10229000D7F80090343002F029F80099A1F83A807C
:1022A000C1F84C80E8E700000411002038B50C4666
:1022B00005000FD003F0C0FB284602F0C1F80090E3
:1022C00018B1046628460DF09BFA684602F016F92C
:1022D00005F0D4F838BDF8B515460C46060013D005
:1022E00003F0AAFB304602F0ABF8009038B1032CA3
:1022F00005D200EB8400C56630460DF081FA6846D1
:1023000002F0FCF805F0BAF8F8BD1CB50C4602F076
:1023100097F80090406BF0B102F092F8019006F04F
:1023200033FA009991F8542002B10122002C00DA0E
:102330000024844200DD0446B1F93800801AA0422E
:1023400000DA0446C86CA04200D0CC6400200865C6
:1023500001A802F0D3F8684602F0D0F81CBD0000D6
:1023600010B54FF4805000F04DF8012811D1010351
:10237000084801F05AFB18B901200749087002E02B
:10238000022005490870012004490870000300F08C
:1023900033F810BD000002405C000020280000203F
:1023A0000EB5012188030AF031F80B2100200BF053
:1023B00083F80C2100200BF07FF84FF48050009040
:1023C00000208DF8040010208DF8050001208DF804
:1023D0000600684600F022F828208DF80800032047
:1023E0008DF8090002208DF80A0001208DF80B00FD
:1023F00002A809F0EDFB0EBD01490860704700001E
:10240000143C014001460020034A12680A400AB108
:10241000012000E000207047143C014000212349C6
:102420008279002A3AD00A46126803689A430B461A
:102430001A600A1D126803689A430B1D1A6002791C
:1024400011440A6803681A430A60184A083212687D
:1024500003689A43154B08331A601A1D1268036803
:102460009A43124B0C331A604279102A0ED11A1F6C
:10247000126803681A430D4B08331A601A1D12685C
:1024800003681A43094B0C331A600DE0074942797F
:1024900011440A6803681A430A6005E0027911448E
:1024A0000A6803689A430A6070470000003C0140D4
:1024B00051B18200A2F1C042126842F001038200D1
:1024C000A2F1C042136009E08200A2F1C04212688A
:1024D000034B1A408300A3F1C0431A607047000009
:1024E000FEFF0F0030B50023002100220468A40085
:1024F000A4F1C04421684D4C2140D0E901452C4352
:10250000C5682C4305692C4345692C4385692C43D8
:10251000C5692C43056A2C43456A2C43856A2C43C4
:10252000C56A2C43056B2C43456B2C43214304683F
:10253000A400A4F1C04421608468082C0BD1046875
:10254000A400A4F1C044246844F040050468A40039
:10255000A4F1C0442560446BB4F5801F19D1046810
:10256000BCB14FF02044646824F470034FF0204461
:102570002468456B2C434FF020452C602C46246882
:1025800044F480742C60846B248A641E43EA0454EF
:102590006C60846B2468856B6D6844EA0514856BF8
:1025A000AD6844EA0524856BAD8944EA0544856B32
:1025B0002D8A44EA0554856B2D7D44EA0564856BBC
:1025C000AD692C4305686D1CAD00A5F1C0452C60BC
:1025D000846AB4F5804F20D10468A400A4F1C044FB
:1025E000D4F80421124C2240C46B2468C56B6D687A
:1025F00044EA0514C56BAD6844EA0524C56BAD8992
:1026000044EA0544C56BAD692C4322430468A40029
:10261000A4F1C044C4F8042107E06FF070450468D9
:10262000A400A4F1C044C4F8045130BD8000E7FF09
:102630000000F0CF00B59FB00F2008900020099057
:102640003C200A9000200B900C900D900E900920D9
:102650000190002002900820039000200490059033
:102660000690079006200F900020109011901020E7
:1026700012900020139014901A90159016904FF419
:1026800080501790002018904FF48040199000203F
:102690001B9008A81D9001A81E900FA8FFF722FF0D
:1026A00001210620FFF704FF1FB000BD2DE9F04710
:1026B000044640688EB00027804601F0C1FE0090BD
:1026C000B0F87CA0D0F86890D0F88060D0F888503E
:1026D000C06D00B10768684601F010FF05E0696849
:1026E00020468847002843D12D68002DF7D1206867
:1026F000172853D00CDC0F283DD004DC0B2877D0F2
:102700000D2825D18BE0112810D0142820D13BE0D2
:10271000262846D004DC1E2851D0202818D18AE073
:102720002A2816D0B0F5107F12D128E04046E5687F
:1027300001F086FE0290697A39B9297A012904D11B
:1027400030F87C1F41F48071018002A801F0D6FEB0
:1027500075E0404601F074FE0090E16811B1C0F8E8
:10276000841002E0D0F88400E060684601F0C6FE04
:102770000EB0BDE8F087D7B34046B8475FE02146CA
:10278000404616F0B5FDF3E705A9404600F0ACFB66
:10279000E0680699016007994160E9E7C4F80C9088
:1027A000E6E7E0680228E3D1CDF83080E0680D90DC
:1027B00027200A900AA9A0680EF076F9D8E7E06809
:1027C000012804D00021404600F0BBFAD0E7304693
:1027D0000DF091F868B130460DF0EEFA30460CF08D
:1027E00037FF98B1012130460BF04BFE0EE026E09A
:1027F0002FE048460DF034FB0646404601F020FE2F
:102800000090C0F88060684601F078FE01214046E3
:1028100000F097FA002EABD10020E060A8E75FEA55
:102820000A700CD4E068C06848B1007A38B14046FC
:102830000DF0C2FA03E02146404616F0B7F92146F2
:1028400040460BF089FD002892D020460CF016FA85
:102850008EE7404601F0F4FD0090703001F046FD37
:10286000684673E7F0B587B0B0F908400DF10C0C7D
:102870000C9E876945688CE8F000448A0025CDE904
:1028800000150294B0F90C10B0F91050B0F90E40D8
:10289000B0F90A00194410442B46224600F002F811
:1028A00007B0F0BD2DE9F04F8BB09846DDE9155625
:1028B00091468A468346149F1A9C03F0BDF833481C
:1028C000603445F48055CDE90204CDE900754346F6
:1028D0004A46514658460CF019F904004FD001F011
:1028E000AFFD3022049017990BF008FF04982822BE
:1028F00027493430FDF711FD04981999244F41669A
:10290000A0F87C600026C0F88060C666083FC0F86A
:1029100088607968C16504A801F0F0FD05A920462A
:1029200000F0E2FA1B4841F2827103960094CDE96F
:102930000110BDF91E00BDF91A10BDF91C20431A83
:10294000BDF918005B1C121A521C0CF0DFF8064689
:102950007868416820468847204601F071FD049060
:10296000866604A801F0CAFD42F20400054202D1C5
:1029700020460CF058FA2046189900F03BFA04F073
:102980007DFD0BB02046BDE8F08F0000AD260008AD
:10299000400D0020F13100082DE9F041044694B0CB
:1029A000006800F0B7F908B1D94D01E0D84D2C35D9
:1029B000606815281ED00CDC0B281FD004DC002812
:1029C0007ED005287DD12FE10E287BD01228F9D1A9
:1029D00041E1162806D0172808D0182808D01C284E
:1029E000F0D109E0E86914B0BDE8F081286AFAE79F
:1029F000686AF8E7A86AF6E76869F4E720680B9068
:102A00001C200C90206801F01BFD0390016D0BA8A9
:102A10008847064603A801F071FD022E0FDB95E8FA
:102A200007008DE80700D4E904023346A16905F0E8
:102A30003FFC20698719A069A0EB06082CE02868F4
:102A400003F0A7FE2169E8690A18521E606902F0C6
:102A50006DFCA269E869111A491C606902F066FC04
:102A6000D4E904077F1C394602F0B0FC3946A0695E
:102A700002F0ACFC686803F08CFE20693946401C0B
:102A800002F0A4FCA0693946401E02F09FFCA06938
:102A90002769A0F10208BF1C286803F07AFE4246AD
:102AA0003946606902F042FC686803F072FE6069B2
:102AB00042463946401C02F039FC686A022802E0AE
:102AC00015E1B0E000E10BDDA86803F062FE61698A
:102AD0006A6A881C8B180146424638465B1E27E00E
:102AE000296AB14226DD6069022E074600F102081C
:102AF00001DB374401E007F10207206901DB3044C4
:102B000001E000F1020022693B460A444146A2F17D
:102B1000010202F063FD022E02DBA069821B01E0CC
:102B2000A269921EA069E9693B46401A4146401CD1
:102B300002F054FD022E02DB6069064401E0666982
:102B4000B61CE76928687F1E03F023FE3A4631462B
:102B5000206902F0A1FC3A463146A06902F09CFCD3
:102B6000E7696868BF1E03F014FE20693A463146E3
:102B7000401C02F091FCA0693A463146401E02F02A
:102B80008BFCE869022802DC286A022823DDA86A97
:102B9000022802DDE1690F1A01E0E769BF1EA8689B
:102BA00003F0F7FDE969022909DD20693B46421877
:102BB00000F1020C31466046521E02F00FFD286AF9
:102BC000022808DDA269E8693B46101A3146401C1C
:102BD000921E02F003FD286803F0DBFDD4E9062015
:102BE000216902F0A3FB686803F0D3FDD4E9062055
:102BF0002169401E491C521E02F098FBA86A022857
:102C000011DDA1692669E469A1F10208271AA41E51
:102C1000B61C7F1CA86803F0BCFD2346424639461B
:102C2000304602F0DBFC71E0208A00B2ADF81400FF
:102C3000A18A09B2ADF81610228B12B2ADF8182095
:102C4000A38B1BB2ADF81A302C69ED68CDE90054A6
:102C500002F030FB5AE0208A298B0844ADF81400BA
:102C6000A08AADF81600208B298B401AADF8180009
:102C7000A08BADF81A00206801F0E2FB0390006F12
:102C8000F0B1022003F040FE039890F87C10C1F3ED
:102C9000C00100EB8100006C03F07BFD0398406BEA
:102CA00003F0A8FD0398006F01F0CAFB0399099097
:102CB000B1F95A2005A902F0EFF809A801F01EFCAD
:102CC00003A801F01BFC21E0208AADF81400A08AC3
:102CD000ADF81600208BADF81800A08BADF81A00E7
:102CE000A86803F056FD05A802F0A4FC0EE02068D9
:102CF00001F0A6FB039030F85A1F41F00C0101804F
:102D000003A801F0FBFB20680DF002F900206AE641
:102D10007C0D002038B505004FF000040FD002F004
:102D20008BFE284601F08CFB009090F87C00000799
:102D300000D50124684601F0E1FB04F09FFB20462A
:102D400038BD70B50D46040009D002F075FE294665
:102D5000204617F059FFBDE8704004F08FBB70BDEE
:102D6000074A0649054B1160064A083BD16958607D
:102D70001B68C2E90630084670470000700D00204D
:102D80003C0D0020400D00202DE9FC410D46804601
:102D900002F052FEB8F1000028D001F051FB019082
:102DA000C16D8C6800F007F907460198456301A8DA
:102DB00001F0A4FB226801214046904706462268A4
:102DC000032140469047054622680021404690472F
:102DD0000446404600F0D5F92B4632463946404677
:102DE000009400F05EF940460CF00AFD04F046FB4A
:102DF000BDE8FC817CB50D4604001DD002F01CFE30
:102E0000204601F01DFB0090006F0190684601F024
:102E100075FB294601A805F063FE58B1204601F074
:102E20000FFB009001990167684601F067FB20469F
:102E30000CF0E6FC04F022FB7CBD38B50C46050026
:102E400013D002F0F9FD284601F0FAFA0090B0F92B
:102E50005A10A14204D0A0F85A4028460CF0D0FCE9
:102E6000684601F04BFB04F009FB38BD2DE9FC4737
:102E70000D465FEA00094FF0000432D002F0DCFD9D
:102E8000484601F0DDFA0190B0F95440A54223D044
:102E900000F091F8804601980121A0F85450C06DCF
:102EA000856848462A68904707462A6803214846AD
:102EB000904706462A6800214846904705464846FE
:102EC00000F05FF933463A4641464846009500F027
:102ED000E8F848460CF094FC01A801F00FFB04F060
:102EE000CDFA2046BDE8FC872DE9F34F85B00027D9
:102EF0000C46B846059801F0A3FA0090C06D012178
:102F0000856805982A68904782462A6803210598B3
:102F1000904704902A6802210598904703902A68F8
:102F2000002105989047064600980DF02BFA83463D
:102F300000980DF02EFA8146009890F8321089061C
:102F400001D5B0F9588000F036F805460098C06EFB
:102F500010B10CF090F9074625806780A4F804A012
:102F6000049AABEB020006EB0802401E2A442081C3
:102F70003A44E280039BA9EB0302521E6281A4F84B
:102F80000CA020827019E681401E6082684601F024
:102F9000B5FAB4F90C000190B4F91000029002AA3D
:102FA00001A9059800F03AF80198A08102982082C2
:102FB00007B0BDE8F08F10B50146002091F832202F
:102FC000920607D5B1F95400002803D1486B02F0EE
:102FD000CFFC801C10BD70B58AB00C46054601F0D0
:102FE0002FFA0990C06D866809A801F087FA00954C
:102FF00034B1012C06D0022C0BD0032C04D10AE0F2
:10300000182000E0162001907168684688470AB0D1
:1030100070BD1520F7E71720F5E700002DE9FC410A
:1030200017468846044601F00BFA0090C16D05680A
:1030300068468E6801F062FA3268002120469047A7
:10304000064620460BF0C2FF27E000BF01F0F8F96A
:103050000190B0F900102AB2B0F90430891A9A1A16
:10306000B0F90230A3EB2543B34210D190F8280009
:10307000000605D53868884209DB491E396006E03C
:10308000D8F80000904202DC521CC8F8002001A8C9
:1030900001F034FA20460CF03FF80400D6D1BDE828
:1030A000FC812DE9FF4F83B00E460746DDF84090C6
:1030B00001F0C6F90190C16D8D68FFF77CFF0446F1
:1030C00001A801F01BFA2A6801213846904783467F
:1030D0002A6803213846904782462A6800213846EC
:1030E00090470546B44207D105998B4504D106990E
:1030F0008A4501D14D4541D0A41B0026B046384633
:103100000BF064FF38E001F09BF90090806A010643
:1031100001D5800502E0810528D50006002825DBC1
:1031200024B12246114638460CF092FC009890F8E3
:10313000280000060AD50698A5EB0902A0EB0A00B4
:1031400004FB16013846761C0CF02CFC0098008D10
:1031500080050BD50599A5EB0902ABEB010004FB3B
:10316000080108F1010838460CF01CFC684601F023
:10317000C5F938460BF0D0FF0700C4D107B0BDE851
:10318000F08F70B586B0064601F05AF90590D0E987
:103190001A4505A801F0B2F954EA050026D069469F
:1031A0003046FFF7A1FEACB1BDF90620BDF9041011
:1031B00020460CF0BBFBBDF90A00BDF90610421A0F
:1031C000BDF90800BDF90410521C411A2046491CE3
:1031D0000CF0F3FE002D09D0BDF90600BDF9021078
:1031E000421ABDF9041028460CF0A0FB06B070BDD1
:1031F0002DE9F0430446406889B005460BF099FF7D
:10320000814601F01DF90290D0F84880D0F8807016
:10321000466E02A801F072F92068172852D008DC27
:103220000E2839D00F2811D014284BD015283CD1A6
:1032300048E01E281DD01F2829D022283FD0312841
:1032400033D10020E06009B0BDE8F0831F4940465B
:10325000884503D006F026FF01F076FB002EF2D061
:10326000D4E902122068CDE90405CDE9061204A8CC
:103270001FE0E0680028E6D02FB1AF4203D0384607
:103280000CF09AFDDFE728460CF0EAFDDBE721466B
:1032900048460BF061F8D6E7E0684168002904DD94
:1032A00000680928EFD00A2805D05EB12046C4F88E
:1032B0000490B047C7E728460CF006FEC3E7C4F801
:1032C0000C80C0E720460BF0D9FCBCE7785634FFF1
:1032D0002DE9F0430446C56887B090468946002032
:1032E00003F07CFA064625B1287910B146F00200B9
:1032F00001E026F0020003F071FA2069012558B1BF
:10330000D4E902128DE826000395638822880468B8
:1033100041464846A0471EE0124F134B21463868ED
:103320001B68427CE068984730B9E088012801D0EA
:10333000002001E03868806BA288E388A1680095CE
:10334000CDE90410CDE90232019563882288414617
:10335000484606F007FA07B03046BDE8F04303F0F0
:103360003DBA0000040A0020F40900201CB5002426
:10337000019401AC009400F0E7F81CBD2DE9FF4F6B
:1033800083B0814606988A46A0EB0A08109E00206A
:103390000090A2EB09043568934654EA080018D05F
:1033A0002046FDF78CFE07464046FDF788FE874223
:1033B0000BDA2046444680464846D1468246584667
:1033C000DDF818B0069001200090002C07DD2046A3
:1033D00006E007B04846BDE8F04F00F03BB9604258
:1033E000A0420AD04846D9466442C8F10008834644
:1033F0004FF0FF37DDF818A000E001275148B8F181
:10340000000F11D004EBD4714FEA610B01DACBF15C
:10341000000B4C480068807E88B3002F02DA3068C9
:103420002044306000257BE000990029016821D00C
:10343000897E11B10027804615E007B05A464946FB
:103440005046BDE8F04F06F0EFBA28466D1C17F065
:1034500005FD38B9D8F8000009EB0701406E426855
:10346000504690477F1CA742EFDD6D1E356007B0C8
:10347000BDE8F08F8A7E1AB10027804617E019E078
:10348000486E5A465146036807B04846BDE8F04FBB
:10349000184728466D1C17F0E1FC38B9D8F8001021
:1034A00009EB0700496E4A68514690477F1CA742C6
:1034B000EFDDDAE700250FE008FB05B090FBF4F143
:1034C00001EB0A00009951B11E4A09EB050112688F
:1034D000526E526890476D1CA542EDDDC7E7194951
:1034E00009EB05030968496E4A6801461846F1E789
:1034F00008FB05B090FBF4F101EB0A000190306885
:103500003844306017F0AAFC48B9009890B10D48D3
:1035100009EB05010068406E4268019890476D1CF8
:10352000A542E5DD3068002F01DA20443060C01B81
:1035300030609CE7034909EB05000968496E4A6859
:103540000199EBE7040A00202DE9FF470F464049A7
:103550001646804609680C981D460A7E012A1CD032
:10356000A8EB0600791B50EA01031CD0A2F1010967
:1035700019F052FB00F58060824605F07EFB00FBEF
:1035800009F4504605F07EFB00FB09F1002C0CDA33
:10359000C4F50070801240420AE00090324639467D
:1035A0004046FFF7EBFEBDE8FF8704F50074A0126C
:1035B000002904DAC1F5007189124C4202E001F5DC
:1035C00000718C12002804DD411C01EBD1714910FF
:1035D00003E000EBD0714910401E00EBD0704210A8
:1035E000002C04DD601C00EBD070401003E004EB05
:1035F000D4704010641E04EBD47308EB0104ADF8E2
:1036000000403C18ADF80240A8EB02045B10B21A6F
:10361000ADF80440ADF808203144FC1AEA1AADF8C0
:103620000C102844ADF80A20ADF80E000023ADF8C8
:1036300006401A460421684600F07AF839464046AA
:1036400012F080F82946304612F07CF8ABE7000013
:10365000040A0020064A13681A7E012A05D0521E69
:1036600002EBD272521000F005B85A6E5268104741
:10367000040A00202DE9F05F0646884640F2C32088
:1036800002FB00F14FF47A7091FBF0F702FB02F1BC
:1036900002EBD27001EB600B1446B118234A301BC9
:1036A0007F1C1268526E13680A46414698470125EE
:1036B00038E000BF05FB05F004FB040159451CDDA3
:1036C000BC4219DD194B06EB050AA6EB05091B6880
:1036D000AAF1010208EB04015B6E09F101001B680D
:1036E0009847124BAAF10102A8EB04011B6809F1EB
:1036F00001005B6E1B689847641E0C4B3219301B2F
:103700001B68924608EB05015B6E81461B68984773
:10371000064B5246A8EB05011B6848465B6E1B68CA
:1037200098476D1CBD42C5DDBDE8F09F040A00202E
:103730002DE9FF4F43F6FF740F46664283B09B4668
:10374000814600210BE000BF09EB8100B0F90200C7
:10375000A04200DA0446B04200DD0646491CB942E8
:10376000F2DB67480068406900280DD0B0F9061008
:103770001A46A1EB0B01B14200DA0E46B0F9020085
:10378000801AA04200DD0446B4E0DFF878A10020F2
:103790000546CAF8000088E0781E854201DA6B1CF5
:1037A00000E0002309EB850C09EB8302BCF9020061
:1037B000B2F90210A04244D1A14215D139F9233007
:1037C000059A39F9251003EB020C4D4A0598126849
:1037D000084404EB0B01526E6045136801DA62463F
:1037E0002AE00246604627E02846A4464FF000083B
:1037F0007A1E0BE008B1401E00E0781E09EB800342
:10380000B3F90230634504D108F101089045F1DBBA
:103810002346A34248D01A1B39F92500A1EB040C1A
:10382000059B92EA0C0F09D4354A184404EB0B01AE
:103830001268526E13680246984735E00DF0A8FAF8
:1038400032E0A14230D001DBA04203DDA0422BDBFD
:10385000A14229DCE04688420ADC0346A04223DC80
:103860000846A14220DBB8F900C0B2F9001008E018
:103870000B46A14218DCA04216DBB2F900C0B8F931
:103880000010E21AA1EB0C0151430029A0EB030246
:1038900002DD01EB620102E0A1EB6201491CC01AEA
:1038A00091FBF0F06044C9E76D1CBD42FFF674AFB8
:1038B0000598009004EB0B0001900020804605461F
:1038C00013E01149B8F1000F31F915A009D00099A2
:1038D00001EB0A0208440A490968496E0B6801991C
:1038E000984788F0010850466D1C064909688D42CA
:1038F000E7DB641CB4427FF748AF07B0BDE8F08F48
:10390000040A002080130020248E01200E4810B5E8
:10391000006802F033FF0D48006802F03AFF012012
:1039200002F0D4FF002002F0DFFF002002F0ECFFE5
:10393000002002F053FF0648006802F05BFFBDE87C
:103940001040002002F094BF000A0020FC09002073
:10395000F8090020F0B50A4600210023002400BF2A
:103960003DE0012505FA01F3156805EA03049C42D0
:1039700034D105684F000326BE40B5430560157974
:103980004E00B5400668354305601579012D02D01B
:103990001579022D16D185684F000326BE40B54328
:1039A000856055794E00B540866835438560456829
:1039B00001268E40B5434560456896798E40B6B283
:1039C00035434560C5684F000326BE40B543C5601A
:1039D000D5794E00B540C6683543C560491C1029ED
:1039E000BFD3F0BDF0B5002300244D07ED0E02FA61
:1039F00005F3CE1000F1200555F826504E07F70EBE
:103A00000F26BE40B543CF1000F1200646F82750E0
:103A1000CE1000F1200555F8265045EA0304CE10DB
:103A200000F1200545F82640F0BD0246002013694C
:103A30000B400BB1012000E000207047418370472C
:103A4000018370471FB50121062008F09FFC4FF449
:103A50008060009000208DF804008DF8060003209F
:103A60008DF8050001208DF8070069463148FFF701
:103A700071FF0420009001208DF8040069462E4853
:103A8000FFF768FFFDF742FF00202C4908600A207D
:103A90001DF03EFC01202A49C1F888020A201DF0D1
:103AA00037FC4FF48060009000208DF804008DF802
:103AB000070069461F48FFF74DFF64201DF028FCF2
:103AC000042202A948F2401000F04AF800208DF8C4
:103AD0000C001CA102A8FCF782FC48BB02208DF858
:103AE0000800012202A948F2400000F011F9012269
:103AF00002A948F2470000F033F89DF8080060285A
:103B000007DA9DF8081011A018F092FE012000F0CD
:103B1000D1F80A201DF0FCFB00208DF808000122DE
:103B200002A948F2400000F0F3F8002004B010BDF4
:103B30000120FBE70014024000040240888240425A
:103B4000008040423931343700000000446566612E
:103B5000756C74205665723A25640D0A00000000E9
:103B60002DE9F04105460F461646FDF78FFF282048
:103B7000FDF75AFFFDF7D4FF2812FDF755FFFDF7BB
:103B8000CFFFE8B2FDF750FFFDF7CAFFFDF77EFF5C
:103B90002920FDF749FFFDF7C3FF00240BE0711E4C
:103BA000A14201D0012100E000210846FDF706FFF7
:103BB0003855601CC4B2B442F1DBFDF78DFFBDE89F
:103BC000F08100000EB500200290012202A948F207
:103BD0004E10FFF7C5FF9DF8080000F08000002898
:103BE0005ED09DF8080000F00F0002909DF80800DC
:103BF000062855DA002000900122694648F24E104E
:103C000000F086F89DF80800274948709DF80800E4
:103C1000F0B30020009036E0002024499DF80020F9
:103C200021F822009DF8002001EB82014880204904
:103C30009DF8002031F81200042201A9FFF790FF3F
:103C40009DF804009DF8051001F00F0140EA0120E5
:103C500016499DF8002001EB820148809DF806007E
:103C60009DF8071001F00F0140EA01200F499DF86F
:103C7000002021F8220001200B4908709DF8000067
:103C8000401CC0B200909DF800000628C4DB07E08D
:103C9000FFE705480078012802D10020024908709A
:103CA000014800780EBD0000780400205C2C002044
:103CB000ECFC020838B50546002400208DF8000011
:103CC0008DF8015000BF09E09DF800000F49095D23
:103CD0000844C0B28DF80000601CC4B2B82CF3D305
:103CE0009DF80000C043401CC0B28DF80000B8220F
:103CF000064948F2470000F00BF80222694648F2F4
:103D0000FF0000F005F8002038BD000034FC020878
:103D10002DE9F04104460E4617464FF00008FDF726
:103D2000B5FE2820FDF780FEFDF7FAFE2012FDF714
:103D30007BFEFDF7F5FEE0B2FDF776FEFDF7F0FE47
:103D400000250BE0705DFDF76FFEFDF7E9FE804694
:103D5000B8F1000F00D003E0681CC5B2BD42F1DB32
:103D600000BFFDF7B9FE4046BDE8F0812DE9F04FF8
:103D7000DFF828B191B04FF0FF35DBF80030B3F930
:103D800022100691DE69B3F92490F469A189814279
:103D900006D8E289824203D3471AD4F8008012E0A1
:103DA000D4E9018100296FD00A8882426CD84D88FD
:103DB000854269D3801A82B2486800EB8200B0F96C
:103DC0000070B0F90250781C5ED0307EA17C10FBF0
:103DD00001FA217CCDE90701B3F92A60304606F0EB
:103DE000B1F9C0B20E90DBF8000007FB0A81A37C9A
:103DF000826B0127CDE90412CDE90273C069089AEC
:103E0000C17E807ECDE90001DDE90603494605F06B
:103E1000A9FC681C18D046F0020006F093F9DBF804
:103E20000000A37C05FB0A81826BCDE90273CDE91A
:103E30000412C069089AC17E807ECDE90001DDE9E7
:103E40000603494605F08EFCDBF800005D46C069BC
:103E5000417E007E814214D9022E12D086F00400E9
:103E600006F070F92868C069027EC37E12FB0391D8
:103E7000437E857E089A06984B4412FB050205F0A6
:103E8000FDFD0E9806F05EF9DBF80000627C418CC7
:103E90001144418411B0BDE8F08F0000040A0020F5
:103EA00004480068C069C06909B1027C0A60407CAE
:103EB00070470000040A0020022008807047C06993
:103EC00082898A4202D8C2898A4210D2806880B12F
:103ED00002888A420DD843888B420AD3406800EB9F
:103EE0008100A0EB8200B0F90000002801DB012076
:103EF00070470020704700002DE9F043304C034626
:103F000087B020681946B0F92A60C069C06900F01E
:103F1000FAF8002850D041680088181A01EBC00553
:103F20003046AF7806F00EF9814620686A680123B2
:103F3000816BCDE90237CDE90421C169CB7E8A7E50
:103F4000CDE900230B7EB0F924102A78B0F92200C5
:103F500005F008FC2068C069417E027E91421FD9AD
:103F6000C07E11FB00F812FB00F7022E18D001F002
:103F700066FC064601F02CFC02F00BFC21682A7856
:103F8000CB69B1F92200DB7E12FB0302B1F92410E8
:103F900001EB0803394405F071FD304602F0F9FBEE
:103FA000484606F0CFF820686A78C369B0F9221055
:103FB0009B7E12FB0311418407B0BDE8F083000033
:103FC000040A00202DE9F3411C4E0F4600253068FD
:103FD0002C46C069417EC07E11FB00F81DE068469A
:103FE00003F00EF9054630682946C069C06900F043
:103FF0004BF890B141680088281A00EB400001EBB3
:10400000800090F90210007908443168C969897EFE
:1040100010FB01F0002800DD04447F1EDFD51DB138
:10402000284604F0CDFB0444414620460DF0DAF961
:10403000034901200870BDE8FC810000040A00204B
:10404000241100202DE9F3410D4D0E4F0E46286836
:10405000B0F92A40A0070AD17A680098904706E094
:10406000684603F0CDF82968C96909688847761E53
:10407000F6D50020387028684485BDE8FC81000032
:10408000040A00202411002006E002888A4202D897
:1040900042888A4202D280680028F6D17047000028
:1040A00001494860704700002411002030B50F4CD2
:1040B00005460B4620682946C069C06900F023F810
:1040C000002812D04168008824682A1A0120E46977
:1040D00000EBC200085CA47E10FB04F0002B04D0AF
:1040E00011F8321011FB04F1196030BD040A0020F0
:1040F00001200880704700B5C06900F004F800286E
:1041000000D0012000BD06E002888A4202D8428821
:104110008A4202D280680028F6D170472DE9F0412A
:104120000025154E154C18E02069C5EB451700EB2E
:1041300087007422001D3168FCF7EFF82069002128
:1041400040F8271000EB870000F10C018161011D90
:104150000A1DC0E90F126D1C4164A0688542E3DBB3
:1041600013F046FD2169C0EB401001EB8000001DFB
:104170003060BDE8F0810000040A002060110020DA
:1041800070B510490E480860084604F0A1FC0D4CBB
:10419000143CA068C0EB40108500284600F0C2F82F
:1041A000094B20612A461B68002198474FF0FF30D9
:1041B000206003F0F3FABDE8704013F019BD000071
:1041C000618D010874110020001100207CB5084E9B
:1041D000DDE906543668367CCDE90054B60702D4D2
:1041E00010F0B6FE7CBD034C2468A0477CBD0000E7
:1041F000040A002074100020F8B50C0005460ED00B
:1042000001F01AFC204600F01BF8060010D000F068
:1042100017F92246009025B12946074B03E00020FC
:10422000F8BD064B00211B689847684600F066F908
:1042300003F024F93046F8BD0411002000110020DD
:1042400010B5040009D001F0F7FB20460CF0ACFEDD
:10425000044603F013F9204610BD002010BD0000F5
:1042600038B5054601F0E8FB2846FFF7E9FF0400F2
:104270000AD000F0E5F8064B00902A461B680021A2
:104280009847684600F03AF903F0F8F8204638BD40
:1042900000110020024A106021F0030050607047B6
:1042A000DC8B012010B5040011D001F0C5FB0848DB
:1042B000042101EBC401406B415848680CF086FDB5
:1042C000204616F039FBBDE8104003F0D7B810BD0A
:1042D0001C8B0120002805D0034AD16B016001B17D
:1042E0004860D063704700001C8B012010B5044665
:1042F00001F0A2FB2068FFF7D5FF00202060BDE899
:10430000104003F0BBB8000070B50D46064600240F
:1043100005E000BF06EB8400FFF7E8FF641CAC4239
:10432000F8DB70BD2DE9F041044613F0BFFF2848CB
:10433000E41C24F00305016C2D1DA94200D90D4693
:10434000C46B13E054F8042CAA420ED184B1216846
:1043500009B162684A60616809B122680A60C26B8B
:10436000A24231D12168C1632EE02468002CE9D13A
:104370008046816BC0680F1857F8040C3E1A3068ED
:1043800038B1002016F09AFB57F8040C3E1A30683A
:10439000D0B97068A84217DB3044441B3046241D56
:1043A00016F044FBD8F80C10491BC8F80C10D8F8CC
:1043B00014102944C8F814107068401B02D031460C
:1043C0000CF004FD44F8045C2046BDE8F0810000D8
:1043D0001C8B012010B5002413F068FF0C490F203E
:1043E00001EBC002526C1AB101EBC000406C08E056
:1043F000401EF5D508E04168A14200D90C4680680E
:1044000010B180680028F6D1A4F10C0010BD0000A6
:104410001C8B0120002138B10449042202EBC000AA
:10442000496B085841680C39084670471C8B0120BD
:1044300002488169491C8161704700001C8B012082
:104440000549CA69521CCA61496B01EBC0010A786F
:10445000521C0A7000F06AB81C8B01207CB506461D
:104460000C460846FFF7ECFE050021D006B33046A7
:10447000FFF7D0FFA04200DA044601F0DDFA28463B
:10448000FFF7DEFF00903046FFF7DAFF094B01909F
:1044900001461B68224600989847684600F02EF8AF
:1044A00001A800F02BF83046FFF7FCFE02F0E6FF13
:1044B00028467CBD0411002010B501F0BDFAFFF7BD
:1044C00089FF64220849B0F5800F04D990FBF2F40B
:1044D000086A444303E0096A4143B1FBF2F402F085
:1044E000CDFF204610BD00001C8B012002488169D1
:1044F000491E8161704700001C8B01200A49026837
:104500004B6B52F8082C03EBC2021378022B03D337
:10451000CB690BB15B1ECB611178491E1170002174
:1045200001600846704700001C8B012003490422EB
:1045300002EBC000496B0858083070471C8B012003
:104540002DE9FC414FF000060B465FEA00083446B7
:104550002BD032B111461846FFF74EFE060000D1AF
:1045600001244046FFF76CFF0090078845686846C5
:10457000FFF7C4FFCCB9B9002846091DFFF76EFF4D
:10458000050015D0FFF75CFF019040F8276001A8F7
:10459000FFF7B4FF4046FFF753FF009045600188E6
:1045A000491C01806846FFF7A9FF2046BDE8FC8151
:1045B0003046FFF777FE0124F7E70820FFF750BEEB
:1045C0007CB5050023D0FFF73BFF00904068C0B1E9
:1045D000FFF736FF0024019005E0019800EB84000E
:1045E000FFF784FE641C00980088A042F5DC01A857
:1045F000FFF784FF0098001DFFF778FE0099002068
:1046000008806846FFF77AFF2846FFF74BFE7CBD1F
:104610007CB50C46FFF714FF00900188A14220D919
:104620004568F5B101F008FA2846FFF709FF019047
:1046300000EB8400FFF75AFE00990888401E80B204
:104640000880401E019905E001EB8402526841F8A0
:104650002420641C8442F7DD01A8FFF74FFF02F01D
:104660000DFF6846FFF74AFF7CBD38B5002430B126
:10467000FFF7E6FE009004886846FFF73FFF2046FC
:1046800038BD38B50D46002448B1FFF7D9FE29469C
:10469000009000F051F804466846FFF72FFF2046CF
:1046A00038BD38B50D46002448B1FFF7C9FE29468C
:1046B000009000F053F804466846FFF71FFF2046BD
:1046C00038BD00002DE9FF4107460E46154600247F
:1046D0001046FFF7C5FD009038B33846FFF7B0FE2F
:1046E0003146019000F03AF802900098FFF7A8FEDA
:1046F000104B03902A461B680299984702A8FFF7BF
:10470000FDFE03A8FFF7FAFEDDE90020314600F0C8
:104710002FF818B16846FFF7E9FD03E00098FFF7AE
:104720008FFE044601A8FFF7E9FE04B02046BDE86D
:10473000F08100000411002038B50D4601880024E6
:10474000A94209D9406838B1FFF77AFE009050F8C5
:1047500025406846FFF7D2FE204638BD10B500243C
:10476000FFF7EAFF10B1FFF76BFE0446204610BDCD
:1047700038B50C46014615460A880120A24210D9D8
:10478000496800290DD00846FFF75AFE00EB840463
:1047900000902046FFF7AAFD68462560FFF7AEFEB1
:1047A000002038BD10B5044601F046F9044904EB79
:1047B000840001EB8000047902F060FE204610BD09
:1047C000E48D01202DE9FC5F8946044601F034F9AF
:1047D000484601F041F82C4E09EB8907824656F80D
:1047E0002700019029484FF00108016841B9274985
:1047F000C0F80080091D26480860084604F068F9E2
:10480000214A09EB8901BAF1000002EB81051BD0B6
:1048100001F04EFF83464FF07F4001F0AFFF00F004
:1048200093F800221146206800F086FC2068428838
:104830000188504601F0FEFF46F8274085F80480C5
:10484000584601F035FF17E046F8274085F8048008
:104850002869464618B101F05BFE0020286174B15A
:104860000096E868A1684B46421AA8686168411A38
:10487000206801F0A7FE2861484616F0DBFF02F031
:10488000FDFD0198BDE8FC9FE48D0120741300201C
:104890009D8D010870B514460D46064601F0CCF812
:1048A000204600F0D9FF0300174804EB840109D02B
:1048B00050F8210041688068711A2A1A184601F0E0
:1048C000A9FF1CE000EB8104A268B24201D00122E2
:1048D00000E00022E368AB4201D0012300E00023A6
:1048E0001A430CD0236943B150F821008168406815
:1048F0006A1A311A184601F030FEC4E90265BDE8B3
:10490000704002F0BBBD0000E48D012010B5C2B2C2
:10491000CBB2D21A00D5524293B25B43C0F3072206
:10492000C1F30724121B00D55242000C92B2A0EB37
:10493000114002FB023200B2002801DA404200B20C
:1049400080B200FB002010BD10B50021084601F028
:1049500025F843F6FF725042BDE810401346014669
:10496000AFF300802DE9FC411C4615460E46074674
:1049700001F062F8042005F0E5FB8046124840692A
:10498000C16C006D0F4406440D440444ADF8007042
:10499000ADF80450ADF80260ADF8064068460BF083
:1049A000FFFC07E023462A463146384605F066F804
:1049B0000BF08AFC0028F5D1404605F0C3FB02F05D
:1049C0005DFDBDE8FC810000F0090020B0F9063073
:1049D000B0F90420B0F90210B0F90000FFF7C2BF2F
:1049E0002DE9F8431C00DDE9089816460F460546F8
:1049F00002D10AF0ADFA044600962E6843464A46B4
:104A000021462846B047061E39D00AF096FA81465C
:104A1000698A304609F035FD30460BF006FB484602
:104A20000BF003FB4FF000080CE000BFCDF8008056
:104A300055F81CCF00231A4649462846E04700B3E4
:104A40000BF0F3FA7F1E002FF0DC1D2148460BF01F
:104A5000D2F8601C12D000F0EFFF0AF0D5FA30B1A6
:104A6000FFF764FD8469B44201D02000F8D1B4425C
:104A700002D030460BF0F4F902F000FD3046BDE8FC
:104A8000F88330460AF034F90020F8E70249096A51
:104A9000002900D008477047F00900202DE9F041B7
:104AA0001C4616460D460746022B02DB0020BDE8D9
:104AB000F0811C20FFF736FC0028F8D00DB105610D
:104AC0000AE0094A52F8241009B905E011460A68BB
:104AD000002AFBD10969016184618682002101609D
:104AE0004160C0E90217E2E7380A002070B51D46B0
:104AF000FFF7D4FF040009D000F00EF8E06800686A
:104B000020B90348006800EB85008465204670BD2D
:104B1000040A0020FFF7DEBB70B5C0B38269022A29
:104B200036DA2149531C0C789C4200DA0B701F4C7A
:104B300054F8221019B944F8220032E019464B68A3
:104B4000002BFBD106E0CB68C5681B682D68AB4223
:104B500003DD09680029F6D11AE0C1B1CB68C66847
:104B60001B683668B3420CD1838A012B05D008E05C
:104B70001946DB681B68AB4203DB0B68002BF7D1DF
:104B800029B14B6833B118604A68426004E0FFE71E
:104B9000012070BD44F822004860884200D1002105
:104BA0000160002070BD00005E0A0020380A00206D
:104BB00010B503E00468FFF7AFFF20460028F9D1E5
:104BC00010BD000010B50C4B8269002153F8224043
:104BD000844205D1046843F82240026802B1516062
:104BE00042680AB10368136002680AB143685360FF
:104BF0000160416010BD0000380A002000207047AD
:104C0000022801DB00207047054A52F8200004E02A
:104C1000C26812688A42F6D000680028F8D170474E
:104C2000380A0020022801DB00207047054951F8AE
:104C3000200004E0C16809680029F6D00068002857
:104C4000F8D17047380A0020F8B516460F4605001F
:104C50004FF0000414D00C20FFF702FB04000FD02B
:104C600000F0EAFE2046FFF7EBFB06490090C0E9A2
:104C70000015078146816846FFF740FC02F0FEFB05
:104C80002046F8BD604007082DE9F8431D4616464A
:104C9000884604000CD0FFF7D3FB0090006807683B
:104CA0006846FFF72BFC2B46324641462046B84764
:104CB000BDE8F88338B504004FF000000AD0204664
:104CC000FFF7BEFB0090006845686846FFF716FCDA
:104CD0002046A84738BD38B504004FF000000AD080
:104CE0002046FFF7ADFB0090006885686846FFF737
:104CF00005FC2046A84738BD2DE9F041044602F0E6
:104D000048FD0619164F1FE000F040FC3868844249
:104D100000DD0446A04600F08FFE12480568FFF74C
:104D200087FB2C0017D000BF02F0A8FB641EFBD14C
:104D3000404602F01FFD1DB100F07EFE6D1EFBD14E
:104D4000FFF7D4FB02F09AFB02F023FD341A002C8B
:104D5000DADCBDE8F081404602F00CFDF0E700002F
:104D6000F80A00206C1100202DE9FC4706005FD0F6
:104D700000F062FE00F07AFD3C4C81462068B0F9FC
:104D8000228000F0D5FD216807468A8CD01B8884DC
:104D900041E000BF47F6FF71304603F0D9FC824680
:104DA0000146304603F0AAFC2168054691F82C0024
:104DB00000F00300012841D002283BD000204A8C9B
:104DC000101A4884ADF800006A1E1044ADF80400C3
:104DD000888CADF80200A9F101010844ADF8060085
:104DE0006A465146304602F00BFF2168BDF80200CA
:104DF00088845146304602F02FFA064430780A285B
:104E00001ED00D281CD0BDF800002168284448841D
:104E1000307818B1761C30780028BBD12068818C9E
:104E200039448184818D21F00301818502F026FBC4
:104E3000BDE8FC8705EBD5704010C0E72846BEE70B
:104E4000206890F82C1001F0030101290BD00229F1
:104E500009D0018C418431780A29D9D1828C02EBA6
:104E600009018184D4E7A0F82280F4E7040A002035
:104E700070B514460D46064600F0DEFD0548006894
:104E8000458484843046FFF76FFFBDE8704002F030
:104E9000F5BA0000040A002047F6FF7300F044B89A
:104EA0002DE9FF471F460C9E90460D46814696B35E
:104EB00000240094019400F0BFFDADB1286800907B
:104EC000686801901748009901600199416028467F
:104ED0000BF098F8040007D00246294602A803F018
:104EE000A9FC02A80BF08EF8304616F061FB0546CF
:104EF0007168684688473B4642466946484602F024
:104F0000D7FE20460BF07EF8284616F051FB02F043
:104F1000B5FABDE8FF87FFE704B0BDE8F04700F051
:104F200003B800001C1100202DE9FC411F469046EB
:104F30000D4606004FF000041AD000F07DFD65B16B
:104F400028460BF05FF8040007D002462946684661
:104F500003F070FC68460BF055F83B464246294684
:104F6000304602F0A5FE20460BF04CF802F086FA1F
:104F7000BDE8FC812DE9FF4F87B006004FF000002F
:104F800091460C46029003907ED000F055FD2568B6
:104F9000676829B238B2401A401CB346019000F04D
:104FA00065FC804619F00C0F1ED030460A9A019914
:104FB00002F06EFA09F00C01042904D0082902D08D
:104FC0000C2911D104E03A1400FB1820401C09E020
:104FD0002914C1EB274300FB1830401C00EBD070B4
:104FE00001EB600060F31F4520460BF00BF80090CA
:104FF00048B1CDE904570246214604A803F01AFC43
:1050000004A80AF0FFFFA8F1010A30460A9A0199A4
:1050100003F0AAFD06900AEB254060F31F47CDE997
:1050200002573046069903F069FB19F003010FD0CF
:10503000012978D002290ED1B4F90420B4F9001066
:10504000521A101A401C00EBD07001EB600000E017
:105050002088ADF8080002AA3046069902F0D0FD7B
:105060003348007888B33348006890F82A008007F6
:105070002BD45E450ED1BDF90A30B4F902108B4233
:1050800008DDB4F9042000E049E0B4F900005B1E3B
:10509000FFF768FCBDF90820B4F90000824206DD84
:1050A000BDF90E30BDF90A10521EFFF75BFC214816
:1050B000B4F904200068B0F92200904205DCBDF983
:1050C0000E30BDF90A10FFF74DFC30460A9A0199DF
:1050D00003F040FD064408EB254060F31F4530789F
:1050E000002892D112480078A0B11248006890F8C8
:1050F0002A0080070ED45E450CD0BDF90E10B4F91D
:105100000630994206DAB4F90420B4F90000491CCB
:10511000FFF728FC00980AF075FF02F0AFF90BB01A
:10512000BDE8F08FFFE7A188081A401C91E7000056
:105130006C0A0020040A00207CB514460D46064681
:1051400000F07AFC11480068C16C006D0D44044405
:105150003188681E0844ADF80400ADF8005071882D
:10516000601E0844ADF80600ADF8024068460BF03A
:1051700017F906E0224629463046FEF7A9F80BF05B
:10518000A3F80028F6D102F079F97CBD040A0020CA
:105190001CB50A460146684603F08CFC00F04CFC46
:1051A0002548BDF80010006830F84C2F1144ADF8C8
:1051B0000010BDF8021082881144ADF80210BDF84D
:1051C000041002881144ADF80410BDF80610808860
:1051D0000844ADF8060068460BF0E2F827E000BF8F
:1051E000BDF900400BE000BFBDF90210204604F0FD
:1051F000E7FBBDF90610204604F0E2FBA41CBDF954
:105200000400A042F0DABDF902400AE0BDF9000056
:10521000214604F0D5FBBDF90400214604F0D0FB83
:10522000A41CBDF90600A042F0DA0BF04DF80028EE
:10523000D6D102F023F91CBD040A00202DE9F04F5D
:1052400087B09B46DDE9109892460C46054600F073
:10525000F3FB16480168C86C096D47190E1900EB7D
:105260000A0501EB0B04ADF81070ADF81450ADF861
:105270001260ADF8164004A80BF092F888B1DFF880
:1052800030B04FF0000ACDE90098CDE902BA2B46C4
:105290002246394630460FF0ECFF0BF015F8002897
:1052A000F1D102F0EBF807B0BDE8F08F040A00205E
:1052B000299A00082DE9F04F87B09B46DDE9109848
:1052C00092460C46054600F0B7FB16480168C86CCC
:1052D000096D47190E1900EB0A0501EB0B04ADF837
:1052E0001070ADF81450ADF81260ADF8164004A877
:1052F0000BF056F888B1DFF830B04FF0010ACDE975
:105300000098CDE902BA23462A46314638460FF0C6
:10531000B0FF0AF0D9FF0028F1D102F0AFF807B0D2
:10532000BDE8F08F040A0020699900082DE9FC41CE
:1053300014460D46064600F07FFB114F3968C86CD5
:10534000096D054404440E44ADF80050ADF8044026
:10535000ADF80260ADF8066068460BF021F808E091
:10536000386822463146406E0368284698470AF05E
:10537000ABFF0028F4D102F081F8BDE8FC81000009
:10538000040A00202DE9F0411C4615460E4607464A
:1053900000F052FB0C480168C86C096D07440544D5
:1053A0000E440C4400200AF0FBFF07E023462A4687
:1053B00031463846FDF7DAFF0AF086FF0028F5D1BE
:1053C000BDE8F04102F05AB8040A00207CB50C4652
:1053D000064600F031FB0F4D2868C16C006D0E448D
:1053E0000444ADF80460ADF80060ADF80640ADF8D7
:1053F000024068460AF0D4FF07E028682146406E64
:105400004268304690470AF05FFF0028F5D102F06D
:1054100035F87CBD040A00202DE9FC411C461646E7
:105420000D46074600F008FB1A480168087ECA6C62
:10543000096D17440D440C44401E391A1644ADF84A
:1054400000103118ADF80410291A2044ADF80600F8
:10545000ADF8021068460AF0A3FF15E0324629466F
:10546000384604F081FA32462146384604F07CFA88
:10547000621E691C384604F0D7FA621E691C304669
:1054800004F0D2FA0AF020FF0028E7D101F0F6FF7D
:10549000BDE8FC81040A00207CB514460D46064692
:1054A00000F0CAFA0F480068C16C006D0E44054454
:1054B0000444ADF80060ADF80460ADF80250ADF8FA
:1054C000064068460AF06CFF06E022462946304650
:1054D00004F0AAFA0AF0F8FE0028F6D101F0CEFF97
:1054E0007CBD0000040A002070B5054600F0A4FA57
:1054F000204CA069E8B904F128011F48086008465B
:1055000003F0E6FA012001F0FDF8E060C0B201F01E
:10551000F9F81A4900231A4601F11800FFF7BEFAFC
:10552000A06104F080FBC01DC0082062FEF7FAFEF7
:105530006061134920697DB108B1012516E0086852
:1055400020610E4800254C3008600E48006820603D
:105550000D480068606009E038B1086000202061F3
:105560000125207B01F0CEF800E0002501F086FF48
:10557000284670BD7C0A0020458C0108442007089D
:10558000B8110020FC090020000A002010B50024FA
:1055900000E0012400F004F80028FAD1204610BDF4
:1055A0000B4810B50068002410B1804700B10124F9
:1055B00009F04CFC00B101240648006810B1804796
:1055C00000B101240448006800B18047204610BDA6
:1055D0000C0A0020440A0020400A00202DE9FC416A
:1055E0001C4615460E46074600F026FA104800688D
:1055F000C16C006D0F4406440D440444ADF80070C6
:10560000ADF80450ADF80260ADF8064068460AF007
:10561000C7FE07E023462A463146384604F02EFAF4
:105620000AF052FE0028F5D101F028FFBDE8FC8108
:10563000040A0020B0F90630B0F90420B0F90210D5
:10564000B0F90000FFF7CABF2DE9F04F87B01C4644
:1056500015460E46074600F0EFF92F48016802A8EC
:10566000CA6C096D02EB070A02EB05090E4401EB57
:105670000408ADF808A0ADF80C90ADF80A60ADF8DC
:105680000E800AF08DFEE0B3A8EB0600401C0590EA
:10569000109C0598B0EB440F32DBA9EB0A00401CCC
:1056A000B0EB440F2CDB04FB04F02746354606EB39
:1056B000040B04901AE0049807FB170003F0A3FA08
:1056C0000AEB0401091A0191A9EB040108440246FE
:1056D00000902946019804F047F9DDE90020A91B54
:1056E000A8EB010104F040F96D1C7F1EAB45E2DA26
:1056F000A8EB04034A46294650465B1E04F0BEF957
:1057000000E003E00AF0E0FD0028C1D101F0B6FEA0
:1057100007B0BDE8F08F0000040A002008B50B4672
:10572000002805D0009281888268C08800F001F8C6
:1057300008BD10B50828029C30D008DC04FB01F439
:1057400001280AD0022813D0042804D11CE0102814
:1057500028D020282CD0002010BD04EBD30003F06B
:105760000701105CC1F10701C84000F0010010BD45
:1057700004EB93000621105C01EA4301C1F106012C
:10578000C84000F0030010BD04EB5300D907105CC3
:1057900002D000F00F0010BD000910BD04FB013065
:1057A000105C10BD481004FB003032F8100010BD32
:1057B000881004FB003052F8200010BD034951F856
:1057C0002000C1688A6A082110470000380A0020BA
:1057D00010B500F031F904F081F904F083FA0446C1
:1057E00001F04CFE204610BD10B5044600F024F92F
:1057F000054800210068C069426820469047044679
:1058000001F03CFE204610BD040A002070B50C4695
:10581000054600F011F9064821460068C069426853
:1058200028469047044601F029FE204670BD00003E
:10583000040A0020002801D009F05CBB704710B5B5
:1058400000F0FAF804F052F904F04CFA044601F0C2
:1058500015FE204610BD00000021022802D2024998
:1058600051F82010084670475811002010B500F07C
:10587000E3F804480068C069447E01F0FFFD20465B
:1058800010BD0000040A002070B50D46044600F06B
:10589000D3F814B909480068C469294694F820006F
:1058A000A87094F82200287194F82100E870A2688A
:1058B00020469047BDE8704001F0E0BD040A00209A
:1058C00010B500F0B9F802F00FFF044601F0D6FD64
:1058D000204610BD70B515460E46044600F0ACF8E3
:1058E0002A463146204604F085F9040002D0002003
:1058F0003060286001F0C2FD204670BD70B50C46D6
:10590000054600F099F82146284602F04BFFBDE815
:10591000704001F0B3BD10B5044602F035FF0146FA
:105920002046BDE8104002F0E9BE01F032BF0000A1
:1059300010B5002400F080F80B48006890F82C1097
:1059400001F00C01042904D0082906D00C2907D144
:1059500003E0C069047E641E02E0C069007E440862
:1059600001F08CFD204610BD040A0020407E7047E7
:10597000017EC07E11FB00F070470000024951F823
:105980002000006900687047380A0020024951F879
:105990002000006940687047380A002070B50C4646
:1059A000054600F049F8044800684584848401F005
:1059B00065FD002070BD0000040A002070B502F0F3
:1059C0004FF81B4C2E20207001F0E7FE194812F012
:1059D00013FC04F0D5F9054604F034F9C0B10026F3
:1059E00004F044F9B0B10020064307D004F047F9B1
:1059F000064604F030F9314604F09EFB00210846CB
:105A000000F044FF09F04EFEFEF788FB206B09E032
:105A10000126E5E70120E7E7006800B18047206B39
:105A2000406820630028F7D10120A070284670BD8F
:105A3000F0090020E88B012070B5184CE06820B117
:105A400001F0A3FE6168884204D001F0E7FE01F096
:105A50009CFE6060E068401CE06001281CD112F0F0
:105A6000C7F805462068854216D0002813DBFFF7EB
:105A7000C5F801462068C0EB4012206900EB8202A5
:105A80009167C5EB4511064A00EB8100011D1160CD
:105A9000806FFFF78DF8256070BD00006011002059
:105AA000040A00201CB5040004D10E480068046EEE
:105AB000002C16D0FFF7C0FF2046FEF7C1FC009077
:105AC00044696846FEF71AFD4CB12046FEF7B8FC63
:105AD000019081688968884701A8FEF70FFD01F0F1
